:100000000C9446000C9465000C9465000C946500FB
:100010000C9465000C9465000C9465000C946500CC
:100020000C9465000C9465000C9465000C946500BC
:100030000C9465000C9465000C9465000C946500AC
:100040000C94AD010C9465000C9465000C94650053
:100050000C9465000C9465000C9465000C9465008C
:100060000C9465000C9465000C9465000C9465007C
:100070000C9465000C9465000C94C1000C94650010
:100080000C9465000C9465000C94650011241FBE4F
:10009000CFEFD0E1DEBFCDBF11E0A0E0B1E0E6E6FA
:1000A000F7E000E00BBF02C007900D92A234B10749
:1000B000D9F711E0A2E4B1E001C01D92AD37B1075C
:1000C000E1F70E9484000C94B1030C94000020918D
:1000D0005701309158012817390724F480915701AE
:1000E00090915801D8989BBD8ABD089510929B00AD
:1000F00088E180939A0086E080939D00109298009A
:1001000087E6809399000895BC9AC49ABB9AC39AD3
:10011000BA9AC29ABD9AD09A0E9407030E947600AA
:1001200080919A00806880939A00789482E88FBDCD
:100130008BE18EBD82E390E097BD86BD86B597B515
:10014000909358018093570180914201909143010F
:100150009BBD8ABD87B18F7187B986B1876886B923
:1001600013BE84E682BF81E087BF789483B787603F
:1001700083BFFFCF90919B0095FFFCCF80939C00A5
:1001800008951F920F920FB60F920BB60F92112483
:100190002F933F934F935F936F937F938F939F938F
:1001A000AF93BF93EF93FF9380919C00809359018D
:1001B000809159018E3299F0809159010E94BA00C4
:1001C00080917A01E82FF0E090915901E65AFE4FB4
:1001D00090838F5F80937A011092780110C0809194
:1001E00059018E3261F48AE00E94BA0080917A014E
:1001F0008093790110927A0181E080937801FF91D8
:10020000EF91BF91AF919F918F917F916F915F918E
:100210004F913F912F910F900BBE0F900FBE0F90FB
:100220001F901895EF92FF92CF93DF93E82EE7018E
:100230007E01F92EE70102C00E94BA00899188234D
:10024000D9F7DF91CF91FF90EF90089580917B01D6
:1002500090917C018130910541F480E091E00E9411
:10026000120110927C0110927B010895FB01109203
:1002700044011092450110924601109247011092DC
:10028000480120E030E0BF010E949D03D901AC5B32
:10029000BE4F8C932F5F3F4FCB010097A1F708957E
:1002A0008A3010F4805D0895895C0895CF93DF93C0
:1002B0006AE070E00E943601C6E4D1E08091460118
:1002C0000E9450010E943403FE01319780810E94F8
:1002D00050010E94340389E191E00E944D0322976E
:1002E00088810E9450010E943403DF91CF910895CC
:1002F0001F93162F6AE070E00E943601112329F146
:10030000163010F4153039F4809148010E945001E4
:100310000E94340302C0143039F4809147010E94D6
:1003200050010E94340302C0133039F48091460119
:100330000E9450010E94340302C0113031F08091BC
:1003400045010E9450010E943403809144010E94A3
:1003500050010E9434031F9108951F920F920FB60F
:100360000F920BB60F9211242F933F934F935F93ED
:100370006F937F938F939F93AF93BF93EF93FF936D
:1003800084E682BF80915501909156010196909329
:100390005601809355018931910509F0CEC0109224
:1003A00056011092550187B1807E87B9389A369AE6
:1003B000349BFECF349A84B195B190933F018093E2
:1003C0003E0180915301909154012091510130914F
:1003D000520184309105B8F440913E0150913F01A3
:1003E000FC01EE0FFF1FE75BFE4F51834083240F9C
:1003F000351F30935201209351010196909354017F
:100400008093530138C080913E0190913F01820F4B
:10041000931F2091490130914A01821B930B9093C5
:100420005201809351019695879596958795909363
:1004300041018093400180914B0190914C01909338
:100440004A018093490180914D0190914E01909312
:100450004C0180934B0180914F01909150019093FA
:100460004E0180934D0180913E0190913F01909308
:10047000500180934F018091400190914101853658
:10048000910560F581E00E94F50280E060E00E9445
:1004900061038BE191E00E944D0381E060E00E94E6
:1004A000610387E291E00E944D0381E066E00E94D3
:1004B0006103809140019091410164E00E947801C4
:1004C000C49AC398C29A80E090E00E94670081E0DD
:1004D00090E090937C0180937B012FC0809140013C
:1004E000909141018536910540F181E00E94F5022D
:1004F00080E060E00E9461038EE291E00E944D0383
:1005000081E060E00E94610387E291E00E944D0378
:1005100081E066E00E94610380913E0190913F017D
:1005200064E00E947801C498C39A82E390E00E943C
:1005300067000E94BB020E942601FF91EF91BF91CC
:10054000AF919F918F917F916F915F914F913F916B
:100550002F910F900BBE0F900FBE0F901F9018950C
:1005600007C0EFE9FFE03197F1F700C00000019705
:100570000097B9F70895C29886E990E00E94B0020A
:10058000C29A86E990E00E94B002089505C025E075
:100590002A95F1F7000001970097C9F7089585E3C0
:1005A0008A95F1F7000085E38A95F1F7000085E36D
:1005B0008A95F1F7000085E38A95F1F7000085E35D
:1005C0008A95F1F700000895982F907F946095BB6D
:1005D0009B7F95BB8295807F846085BB8B7F85BB2D
:1005E00085E08A95F1F7000008951F93182F0E9467
:1005F000CF02812F0E94E4021150123030F48FE3B9
:100600009FE10197F1F700C000001F9108958FEF5F
:1006100084BB8FE59AEE0197F1F700C0000080E3FC
:100620000E94E4028FE19EE40197F1F700C0000010
:1006300080E30E94E4028FE99FE00197F1F700C098
:10064000000082E30E94E40288E20E94F50288E052
:100650000E94F50281E00E94F50286E00E94F50208
:100660008CE00E94F5020895DF93CF930F92CDB7EF
:10067000DEB789830E94CF028981982F907F956091
:1006800095BB9B7F95BB8295807F856085BB8B7F6B
:1006900085BB0F90CF91DF910895EF92FF92CF939A
:1006A000DF93E82EE7017E01F92EE70102C00E94E8
:1006B000340389918823D9F7DF91CF91FF90EF9090
:1006C0000895882349F0813011F4605C05C08230C0
:1006D00011F4605F01C0605B862F80680E94F502A4
:1006E0000895EF92FF920F931F93DF93CF9300D063
:1006F000CDB7DEB7880F880F880F806469837A834F
:100700000E94F50269817A81062F172FEE24FF24BB
:10071000F80181918F010E9434030894E11CF11CBF
:10072000F8E0EF16F104A1F70F900F90CF91DF9151
:100730001F910F91FF90EF900895AA1BBB1B51E1F1
:1007400007C0AA1FBB1FA617B70710F0A61BB70B41
:10075000881F991F5A95A9F780959095BC01CD01E6
:060760000895F894FFCF9C
:100766005761726E696E67212046697265206465FD
:10077600746563746564210A002E00474153204363
:100786006C65616E212100474153203D20004741A1
:100796005320446574656374696E672121000A00FD
:0207A6000A0047
:00000001FF
